:100000000C9462000C948A000C948A000C948A0070
:100010000C948A000C948A000C948A000C948A0038
:100020000C948A000C948A000C948A000C948A0028
:100030000C948A000C948A000C948A000C948A0018
:100040000C9476020C948A000C9444020C941E02C8
:100050000C948A000C948A000C948A000C948A00F8
:100060000C948A000C948A000000000024002700F1
:100070002A000000000023002600290000000000E4
:10008000250028002B0004040404040404040202D4
:100090000202020203030303030301020408102007
:1000A0004080010204081020010204081020000012
:1000B0000008000201000003040700000000000027
:1000C0000000860411241FBECFEFD8E0DEBFCDBFF5
:1000D00011E0A0E0B1E0E6E2FCE002C005900D9284
:1000E000A032B107D9F721E0A0E2B1E001C01D9232
:1000F000A83CB207E1F710E0C2E6D0E004C02197C7
:10010000FE010E940606C136D107C9F70E94050309
:100110000C9411060C940000E1EBF0E09491EDE9F1
:10012000F0E02491E9E8F0E0E491EE2309F43CC02A
:10013000992339F1933091F038F49130A9F092304D
:1001400001F594B59F7D12C0973091F09830A1F0E1
:100150009430B9F4909180009F7D03C0909180000D
:100160009F77909380000DC094B59F7794BD09C090
:100170009091B0009F7703C09091B0009F7D9093C5
:10018000B000F0E0EE0FFF1FE458FF4FA591B491CF
:100190009FB7F894811104C08C912095282302C048
:1001A000EC912E2B2C939FBF0895CF92DF92EF926C
:1001B000FF920F931F93CF93DF936C017A018B0112
:1001C000C0E0D0E0CE15DF0581F0D8016D918D0142
:1001D000D601ED91FC910190F081E02DC6010995C9
:1001E000892B11F02196EECF7E01C701DF91CF91CF
:1001F0001F910F91FF90EF90DF90CF900895089599
:1002000080E090E00895FC01538D448D252F30E06F
:10021000842F90E0821B930B541710F0CF96089513
:1002200001970895FC01918D828D981761F0828D60
:10023000DF01A80FB11D5D968C91928D9F5F9F731A
:10024000928F90E008958FEF9FEF0895FC01918DBC
:10025000828D981731F0828DE80FF11D858D90E029
:1002600008958FEF9FEF0895FC01918D228D892FC6
:1002700090E0805C9F4F821B91098F7399270895AE
:100280008BE291E00E94340121E0892B09F420E007
:10029000822F0895FC01848DDF01A80FB11DA35AA0
:1002A000BF4F2C91848D90E001968F739927848F96
:1002B000A689B7892C93A089B1898C9183708064B9
:1002C0008C93938D848D981306C00288F389E02D5A
:1002D00080818F7D80830895EF92FF920F931F930B
:1002E000CF93DF93EC0181E0888F9B8D8C8D9813E9
:1002F00005C0E889F989808185FD26C0F62E0B8D21
:1003000010E00F5F1F4F0F731127E02E8C8DE81246
:100310000CC00FB607FCFACFE889F989808185FF08
:10032000F5CFCE010E944A01F1CF8B8DFE01E80F7F
:10033000F11DE35AFF4FF0829FB7F8940B8FEA89C3
:10034000FB89808180620AC09FB7F894EE89FF899B
:100350006083E889F98980818370806480839FBF8E
:1003600081E090E0DF91CF911F910F91FF90EF908E
:100370000895CF93DF93EC01888D8823C9F0EA8933
:10038000FB89808185FD05C0A889B9898C9186FD8E
:100390000FC00FB607FCF5CF808185FFF2CFA8898B
:1003A000B9898C9185FFEDCFCE010E944A01E7CF3C
:1003B000DF91CF91089580E090E0892B29F00E9491
:1003C000400181110C94000008953FB7F89480918A
:1003D000250190912601A0912701B091280126B511
:1003E000A89B05C02F3F19F00196A11DB11D3FBF6D
:1003F000BA2FA92F982F8827820F911DA11DB11DFB
:10040000BC01CD0142E0660F771F881F991F4A95F6
:10041000D1F70895009769F0FC0101900020E9F7F9
:100420003197AF01481B590BBC018BE291E00C9452
:10043000D50080E090E008950E940C061F920F9274
:100440000FB60F9211242F933F934F935F936F93A7
:100450007F938F939F93AF93BF93EF93FF938BE221
:1004600091E00E944A01FF91EF91BF91AF919F915E
:100470008F917F916F915F914F913F912F910F904D
:100480000FBE0F901F9018951F920F920FB60F92EC
:1004900011242F938F939F93EF93FF93E0913B0150
:1004A000F0913C018081E0914101F091420182FD97
:1004B00012C09081809144018F5F8F73209145011C
:1004C000821751F0E0914401F0E0E55DFE4F958F19
:1004D0008093440101C08081FF91EF919F918F91A2
:1004E0002F910F900FBE0F901F9018951F920F9293
:1004F0000FB60F9211242F933F938F939F93AF9337
:10050000BF938091210190912201A0912301B0918C
:1005100024013091200123E0230F2D3720F4019690
:10052000A11DB11D05C026E8230F0296A11DB11D16
:10053000209320018093210190932201A093230115
:10054000B09324018091250190912601A09127016B
:10055000B09128010196A11DB11D809325019093B2
:100560002601A0932701B0932801BF91AF919F91DD
:100570008F913F912F910F900FBE0F901F90189564
:10058000CF92DF92EF92FF920F931F93E82FF92FF4
:1005900005C0015011092109310961F190819623AB
:1005A0009417B9F305C0015011092109310911F15E
:1005B000908196239413F7CFC12CD12CE12CF12CF0
:1005C0000AC08FEFC81AD80AE80AF80A0C151D05E8
:1005D0002E053F0579F080818623841791F36C2DD9
:1005E0007D2D8E2D9F2D1F910F91FF90EF90DF900D
:1005F000CF90089560E070E080E090E01F910F914F
:10060000FF90EF90DF90CF900895CF93DF93CDB719
:10061000DEB7A1970FB6F894DEBF0FBECDBF7894BA
:1006200084B5826084BD84B5816084BD85B58260F7
:1006300085BD85B5816085BD80916E0081608093A8
:100640006E00109281008091810082608093810011
:100650008091810081608093810080918000816021
:10066000809380008091B10084608093B10080917C
:10067000B00081608093B00080917A0084608093A4
:100680007A0080917A00826080937A0080917A006B
:10069000816080937A0080917A00806880937A00EC
:1006A0001092C100EDE9F0E02491E9E8F0E08491D6
:1006B000882399F090E0880F991FFC01E859FF4FBB
:1006C000A591B491FC01E458FF4F859194918FB7A7
:1006D000F894EC91E22BEC938FBFEEE9F0E02491DB
:1006E000EAE8F0E084918823C9F090E0880F991F30
:1006F000FC01E859FF4F45915491FC01E458FF4F2C
:10070000A591B4919FB7F894FA0180812095822336
:1007100080838C91E22FE823EC939FBFE0913B0113
:10072000F0913C0182E08083E0913701F091380143
:100730001082E0913901F0913A018FEC80831092A0
:100740004301E0913F01F091400186E08083E09118
:100750003D01F0913E01808180618083E0913D0107
:10076000F0913E01808188608083E0913D01F091AD
:100770003E01808180688083E0913D01F0913E01DF
:1007800080818F7D80832EE9222E20E0322E3AE078
:10079000832E912CA12CB12C80E00E948C000E9411
:1007A000E5012B013C0194EFC92EDD24D394E12C0B
:1007B000F12C0E94E501DC01CB0184199509A60901
:1007C000B709883E9340A105B10598F3F1E0CF1A2F
:1007D000D108E108F10828EE420E23E0521E611C08
:1007E000711CC114D104E104F10419F781E00E94E5
:1007F0008C0083E290E00197F1F780E00E948C008A
:10080000F1016491EAE8F0E08491E82FF0E0EE0F66
:10081000FF1FEE58FF4F8591949100E412E42FE002
:1008200030E0462F0E94C0026115710581059105D7
:1008300049F0DC01CB010196A11DB11DBC01CD0128
:100840009F7003C060E070E0CB010E94EB0426E9DA
:1008500033E44BE05DE30E944F0520E030E040E0F0
:100860005FE30E944F050E94B30470932A016093D6
:10087000290182E191E00E940A02C0902901D090F2
:100880002A010D2C000CEE08FF08F7FE20C06DE2D7
:100890008BE291E00E946C0122273327A9012C19D9
:1008A0003D094E095F0919A2CE0181967C01CA015A
:1008B000B901A50194010E94E405605DF70162930E
:1008C0007F01211531054105510589F715C0A701A3
:1008D000960119A2CE0181967C01CA01B901A50138
:1008E00094010E94E405605DF70162937F01211588
:1008F00031054105510589F7C7010E940A028DE1C2
:1009000091E00E940A020E94DB0146CFEBE2F1E097
:100910001382128288EE93E0A0E0B0E08483958396
:10092000A683B78384E091E09183808385EC90E097
:100930009587848784EC90E09787868780EC90E0A9
:10094000918B808B81EC90E0938B828B82EC90E09A
:10095000958B848B86EC90E0978B868B118E128E14
:10096000138E148E08950E94BA046894B1110C94E9
:10097000490508950E942E0588F09F5798F0B92FD9
:100980009927B751B0F0E1F0660F771F881F991FC4
:100990001AF0BA95C9F714C0B13091F00E94480519
:1009A000B1E008950C944805672F782F8827B85F29
:1009B00039F0B93FCCF3869577956795B395D9F71C
:1009C0003EF490958095709561957F4F8F4F9F4F26
:1009D0000895E89409C097FB3EF490958095709532
:1009E00061957F4F8F4F9F4F9923A9F0F92F96E97B
:1009F000BB279395F695879577956795B795F111F0
:100A0000F8CFFAF4BB0F11F460FF1BC06F5F7F4F8C
:100A10008F4F9F4F16C0882311F096E911C077239E
:100A200021F09EE8872F762F05C0662371F096E8A7
:100A3000862F70E060E02AF09A95660F771F881F76
:100A4000DAF7880F9695879597F9089557FD90588E
:100A5000440F551F59F05F3F71F04795880F97FB82
:100A6000991F61F09F3F79F087950895121613063C
:100A70001406551FF2CF4695F1DF08C0161617066B
:100A80001806991FF1CF86957105610508940895A0
:100A9000E894BB2766277727CB0197F908950E9432
:100AA00062050C94D3050E94C50538F00E94CC0560
:100AB00020F0952311F00C94BC050C94C205112470
:100AC0000C9449050E94260570F3959FC1F3950F7C
:100AD00050E0551F629FF001729FBB27F00DB11DC2
:100AE000639FAA27F00DB11DAA1F649F6627B00D52
:100AF000A11D661F829F2227B00DA11D621F739F3B
:100B0000B00DA11D621F839FA00D611D221F749F48
:100B10003327A00D611D231F849F600D211D822F8F
:100B2000762F6A2F11249F5750409AF0F1F08823B6
:100B30004AF0EE0FFF1FBB1F661F771F881F9150E3
:100B40005040A9F79E3F510580F00C94BC050C94D1
:100B500049055F3FE4F3983ED4F386957795679512
:100B6000B795F795E7959F5FC1F7FE2B880F911D0D
:100B70009695879597F9089597F99F6780E870E0B3
:100B800060E008959FEF80EC089500240A94161603
:100B9000170618060906089500240A94121613066B
:100BA000140605060895092E0394000C11F48823F9
:100BB00052F0BB0F40F4BF2B11F460FF04C06F5F15
:100BC0007F4F8F4F9F4F0895A1E21A2EAA1BBB1B88
:100BD000FD010DC0AA1FBB1FEE1FFF1FA217B30709
:100BE000E407F50720F0A21BB30BE40BF50B661F1F
:100BF000771F881F991F1A9469F7609570958095E3
:100C000090959B01AC01BD01CF010895EE0FFF1F30
:100C10000590F491E02D099481E090E0F8940C9413
:060C20001106F894FFCF5D
:100C2600000000006C01D5000301B9013401120176
:100C3600260144697374616E63653A20000D0A00EB
:00000001FF
